:020000020000FC
:100000000C94D0081895189518951895189518956A
:100010001895189518951895189518951895189578
:10002000189518950C94E807189518951895189533
:10003000189518950C949407189518951895189577
:100040000C944507189518951895189518951895B6
:10005000189518950C94EB06189518951895189501
:1000600018951895189518953E4141413E44427F98
:10007000404042615149462141454B311814127F9D
:100080001027454545393C4A494930017109050366
:100090003649494936064949291E7E1111117E7F8C
:1000A000494949363E414141227F4141413E7F49D4
:1000B0004949497F090909090000000000080808AA
:1000C0000808000036360000006060003E414151E3
:1000D000327F0808087F00417F41007F4040404058
:1000E0007F0618067F7F090909067F090919662618
:1000F0004949493201017F01013F4040403F0738F3
:100100004038073F403E403F030C700C0375AB097D
:1001100015FCCB0002B12885135B48810D9B44DBA5
:100120000C2565F504008400FE4400E00E941809D7
:1001300080E0883050F410E0282F30E0F901EC5DC9
:10014000FE4F049145D08395F4CF97E09F3FE9F1AE
:100150008FE78F3FC1F1082F0770A02FA23070F1F9
:10016000A73060F50091C001002341F111E0B12FEB
:1001700006E610E02A2F30E0020F131F2801492F56
:1001800050E000E110E00E94E208E0E4F1E0E00F5E
:10019000F11F082F06950695069510E0E00FF11F58
:1001A000408150E005E010E00E94E208F201E00F1B
:1001B000F11F0491000F1B2F0BD003C011E000E0D2
:1001C00007D08A95C6CF9A95C1CFE6E00C941F0957
:1001D000302F512F552311F05E9A01C05E985F9821
:1001E00020E0283080F45B98422F01E010E00E946C
:1001F000EA08132F1023112311F05C9A01C05C98B8
:100200005B9A2395EECF5F9A08950E941909EAED53
:10021000F1E002811381212F220F220B322F42E9BC
:1002200050E060E070E00E94F0084AE00E9410098F
:10023000C801D9018C010093D501823900E09007F3
:1002400000E0A00700E0B0076CF000E000934B0175
:100250000EE100934C010AE100934D0100E100938F
:100260004E013DC0863400E0900700E0A00700E0AA
:10027000B0076CF407E100934B0100E000934C01E0
:100280000FE100934D0100E100934E0128C044248A
:10029000843600E0900700E0A00700E0B00734F0EB
:1002A00084569040A040B0404394F2CF40924B011E
:1002B00003E100934D0144248A3000E0900700E000
:1002C000A00700E0B00734F08A509040A040B04052
:1002D0004394F2CF40924C018C0100934E01EAED21
:1002E000F1E004811581212F220F220B322F46E9E4
:1002F00050E060E070E00E94F0084AE00E941009BF
:10030000C801D9018C010093D601823900E0900721
:1003100000E0A00700E0B0076CF000E000935B0194
:100320000EE100935C010AE100935D0100E100939E
:100330005E013DC0863400E0900700E0A00700E0C9
:10034000B0076CF407E100935B0100E000935C01EF
:100350000FE100935D0100E100935E0128C0442499
:10036000843600E0900700E0A00700E0B00734F01A
:1003700084569040A040B0404394F2CF40925B013D
:1003800003E100935D0144248A3000E0900700E01F
:10039000A00700E0B00734F08A509040A040B04081
:1003A0004394F2CF40925C018C0100935E01009176
:1003B000D401002309F491C00091D6011091D50118
:1003C000011708F48AC00091D4010130C9F40091EA
:1003D000D60110E02091D50130E0021B130B212F34
:1003E000220F220B322F4BE950E060E070E00E94B8
:1003F000F008012F122F232F330F330BC801D9011F
:100400000091D4010230C9F40091D60110E020918E
:10041000D50130E0021B130B212F220F220B322FAC
:1004200049EE50E060E070E00E94F008012F122FCA
:10043000232F330F330BC801D9010091D4010330AE
:10044000C9F40091D60110E02091D50130E0021BE3
:10045000130B212F220F220B322F44E851E060E0D2
:1004600070E00E94F008012F122F232F330F330B5F
:10047000C801D9018C010093D701843600E09007B0
:1004800000E0A00700E0B0076CF000E000936B0113
:100490000EE100936C010AE100936D0100E100930D
:1004A0006E012AC044248A3000E0900700E0A007D3
:1004B00000E0B00734F08A509040A040B040439430
:1004C000F2CF00E100936B0103E100936D014092D4
:1004D0006C018C0100936E010FC000E00093D70106
:1004E00000E100936B0100E000936C0103E10093D5
:1004F0006D0100E000936E010091CD0110E0F80164
:10050000E553FE4F0081009387010091CD0110E07B
:10051000F801E253FE4F0081009388010091E3014E
:10052000005051F00A95D9F00A9561F10A95E9F168
:100530000A9509F44DC05FC000E100938A0100E113
:1005400000938B0100E100938C0100E000938D018A
:100550000FE000938E010FE000938F015EC000E179
:1005600000938A0100E100938B0106E100938C0166
:100570000DE000938D0107E100938E010EE00093E2
:100580008F014BC000E100938A010BE100938B01C6
:100590000CE100938C010AE000938D010AE10093C5
:1005A0008E010CE100938F0138C00AE000938A01AC
:1005B0000CE000938B010CE100938C0106E10093A9
:1005C0008D010EE100938E010EE000938F0125C096
:1005D00000E100938A0100E100938B010BE100939D
:1005E0008C010CE100938D0100E000938E0109E184
:1005F00000938F0112C000E100938A0100E1009393
:100600008B0100E100938C0100E100938D0100E17A
:1006100000938E0100E100938F010091E4010050EE
:1006200071F00A9511F10A95B1F10A9509F44AC0E1
:100630000A9509F45DC00A9509F470C085C000E10F
:100640000093980100E100939A0100E100939B015F
:1006500000E100939C0100E000939D010FE00093F6
:100660009E010FE000939F0184C000E10093980178
:1006700000E100939A0100E100939B010CE10093DB
:100680009C010EE000939D010BE100939E010CE1A3
:1006900000939F016EC00091D401009398010CE07B
:1006A00000939A0105E100939B010AE000939C01ED
:1006B0000AE100939D0104E100939E010EE0009386
:1006C0009F0157C000E1009398010AE000939A014E
:1006D0000CE000939B010CE100939C0106E1009368
:1006E0009D010EE100939E010EE000939F0141C029
:1006F00000E10093980100E100939A010DE000935E
:100700009B0106E100939C010BE100939D010CE02D
:1007100000939E0105E100939F012BC000E100932F
:10072000980100E100939A0100E100939B0100E130
:1007300000939C010BE000939D010AE000939E0151
:100740000DE000939F0115C000E10093980100E1C6
:1007500000939A0100E100939B0100E100939C014A
:1007600000E100939D0100E100939E0100E10093F0
:100770009F010091C7010023B1F00AE00093B0018E
:100780000CE00093B10100E10093B20104E1009399
:10079000B30100E00093B40100E00093B5010DE067
:1007A0000093B60115C00AE00093B0010CE000937D
:1007B000B10100E10093B2010FE00093B3010AE040
:1007C0000093B40106E10093B50107E10093B6017F
:1007D0000091C8010023B1F00DE00093B9010CE0D5
:1007E0000093BA0100E10093BB0104E10093BC0156
:1007F00000E00093BD0100E00093BE010DE0009316
:10080000BF0115C00DE00093B9010CE00093BA01DF
:1008100000E10093BB0100E00093BC010FE00093F6
:10082000BD010FE00093BE0100E10093BF01E5E0D0
:100830000C9420090091E401005071F00A95A9F090
:100840000A95E1F00A9509F460C00A9509F482C09E
:100850000A9509F49CC0A5C00091D5010C3408F498
:10086000A0C002E00093E4019CC00091D5010B34CC
:1008700008F097C000E00093E40193C00091D50117
:100880000B3418F400E00093E4010091D5010C341E
:1008900048F00091D501003728F401E00093D4011D
:1008A0002A98299A0091D501003748F00091D50186
:1008B000063728F402E00093D40129982A9A00917F
:1008C000D501063750F00091D5010C3730F403E024
:1008D0000093D40105B1066005B90091D5010C372C
:1008E00040F000E00093D4012A98299A03E0009395
:1008F000E4010091C701002309F053C005B1087F4E
:1009000005B904E00093E4014CC00091D5010F3714
:1009100018F005B1097F05B90091D5010E3708F42B
:10092000299A0091D5010B3418F400E00093E401FA
:100930000091D5010C3718F402E00093E401009116
:10094000C701002371F505B1087F05B904E00093E4
:10095000E40127C000E00093D4010091D5010B34DD
:1009600018F400E00093E4010091C701002321F096
:10097000289A02E00093E4010091C5010F3F09F4B9
:1009800043980091C501002361F4439A0AC0009185
:10099000C501003809F443980091C501002309F40A
:1009A000439A0091E301005069F00A9509F469C087
:1009B0000A9509F4C1C00A9509F4F1C00A9509F431
:1009C0003BC1089540980091CC01063021F400917C
:1009D000CB01043041F00091CB01063079F4009155
:1009E000CC01043059F40091CE01013039F400916A
:1009F000CF01013019F401E00093E3010091CC0133
:100A0000063021F40091CB01023041F00091CB017E
:100A10000630B9F40091CC01023099F40091CE0176
:100A2000013021F40091CF01013041F00091CE015D
:100A3000023039F40091CF01023019F401E0009343
:100A4000E3010091CC01033021F40091CB01073088
:100A500051F00091CB01033009F01BC10091CC0192
:100A6000073009F016C10091CE01023009F011C122
:100A70000091CF01023009F00CC103E00093E301C3
:100A8000089540980091CD0110E0F801E553FE4F24
:100A90000081002319F400E00093E3010091CC01F0
:100AA000063021F40091CB01023041F00091CB01DE
:100AB000063011F50091CC010230F1F40091CE0125
:100AC0000230D1F40091CF010230B1F40091C7019E
:100AD000002391F0E1EEF1E000811181093E23E075
:100AE000120750F00091D301002331F402E000938B
:100AF000E3010FEF0093D0010091CC01033021F40A
:100B00000091CB01073051F00091CB01033009F087
:100B1000C0C00091CC01073009F0BBC00091CE01EC
:100B2000023009F0B6C00091CF01023009F0B1C027
:100B300003E00093E3010895409A0091CD0110E095
:100B4000F801E553FE4F0081002319F400E0009303
:100B5000E3010091CC01033021F40091CB01073077
:100B600051F00091CB01033009F093C00091CC010A
:100B7000073009F08EC00091CE01023009F089C023
:100B80000091CF01023009F084C003E00093E3013B
:100B900000E010E0E1EEF1E0008311830895409A57
:100BA0000091CD0110E0F801E553FE4F00810023D4
:100BB00019F400E00093E3010091D5010436A8F494
:100BC0000091C701002389F4E1EEF1E00081118179
:100BD000013127E2120748F004E00093E3010FEF30
:100BE0000093D00100E00093D3010091CC010230CA
:100BF00021F40091CB01063051F00091CB0102307D
:100C000009F047C00091CC01063009F042C00091C4
:100C1000CE010230F1F50091CF010230D1F501E0B3
:100C20000093E30100E010E0E1EEF1E000831183C6
:100C300001E00093D30108950091CD0110E0F80187
:100C4000E553FE4F0081002319F400E00093E30117
:100C50000091CC01023021F40091CB01063041F02B
:100C60000091CB010230A9F40091CC01063089F447
:100C70000091CE01023069F40091CF01023049F4B5
:100C800001E00093E30100E010E0E1EEF1E0008319
:100C90001183089524D000E215B1102715B9E5ECB1
:100CA000F1E00081039500830E941A040091C001C5
:100CB000002329F0E0ECF1E000810A9500830E9416
:100CC00005010E9496003AD1A8950FE31DE023E0AC
:100CD000015010402040E1F700C00000DCCF07E0E9
:100CE00004B901E005B908EF0AB900E00BB909E061
:100CF00007B90AE008B900E005BF00E004BD03E061
:100D000005BD01E000936E0000E003BD00E000932C
:100D1000800003E00093810000E00093820001E086
:100D200000936F0000E00093B00007E00093B10073
:100D300001E0009370000091C101005C00937C0011
:100D40000FEC00937A0000E000937B00A8950091DF
:100D500060000861009360000FE1009360007894E8
:100D600043985D9A00E00093C4010091C4010731EB
:100D700080F410E02091C40130E0F901E35FFE4F00
:100D800004910E94E800E4ECF1E000810395008307
:100D9000ECCF0FE31DE023E0015010402040E1F7CD
:100DA00000C0000000E00093C4010091C4010830BD
:100DB00080F410E02091C40130E0F901EC5DFE4FB9
:100DC00004910E94E800E4ECF1E0008103950083C7
:100DD000ECCF439A0895FA93EA936A935A934A930D
:100DE0003A932A931A930A936FB70FE000937A000D
:100DF000009178001091790098010091D90110E0DC
:100E0000000F111FF801E652FE4F00811181A90168
:100E1000401B510B559547950091D90110E0000FEB
:100E2000111FF801E652FE4F00811181040F151FBA
:100E300000831183E9EDF1E00081039500830091C7
:100E4000D901033019F400E00093D90100917C002E
:100E5000007F00937C000091D90110E0F801EF536E
:100E6000FE4F008110917C00102B10937C000FEC42
:100E700000937A006FBF0991199129913991499195
:100E800059916991E991F9911895FA93EA933A93F6
:100E90002A931A930A933FB7489B04C000E000933B
:100EA000CA0131C00091CA01002369F501E0009335
:100EB000CA010091840010918500053C29E01207C9
:100EC00090F000918400109185000C342DE1120700
:100ED00050F40091C701002331F4E9ECF1E0008106
:100EE0000395008303C000E00093C9010091C9018C
:100EF0000B3018F001E00093C70100E010E0109300
:100F0000850000938400499B04C001E00093C80160
:100F100003C000E00093C8013FBF099119912991D6
:100F20003991E991F99118951A930A931FB700E046
:100F30000093C7011FBF099119911895319B04C0F7
:100F400000E00093C60108950091C601002321F03E
:100F50000091C6010130B1F50091C601002321F0D6
:100F60000091D801002349F4439807EA11E60150A3
:100F70001040E9F700C00000439A0091C601002329
:100F800039F40091D801002319F404E10093C6015B
:100F90000091C601002339F40091D801002319F013
:100FA00002E00093D8010091C601013039F40091AC
:100FB000D801002319F401E00093D8010AEF00934F
:100FC000C0010895E6ECF1E000810A9500830895E0
:100FD0009A938A93FA93EA933A922A921A920A92ED
:100FE0007A936A935A934A933A932A931A930A9359
:100FF0009FB70091D001002309F1E0EDF1E00081FD
:101000000A9500830091D001003519F409E107B970
:1010100043980091D0010C3319F409E007B9439AC1
:101020000091D001043119F409E107B94398009106
:10103000D001002319F409E007B9439A0091E001B7
:101040000F3F29F0E0EEF1E000810395008300916D
:10105000D1010F3F29F0E1EDF1E00081039500831C
:10106000E1EEF1E0008111810F3F2FEF120741F017
:10107000E1EEF1E0008111810F5F1F4F00831183CA
:10108000EAEDF1E000811181212F220F220B322F96
:1010900040ED50E060E070E00E94F0084EE00E94F9
:1010A0001009802F0091D201801729F08093D2017E
:1010B00000E00093D1012091D2010091CD0110E018
:1010C000F801E553FE4F0081201709F454C0009148
:1010D000D101063008F44FC0EDECF1E0008103953A
:1010E0000083EDECF1E0008101700093CD012091CF
:1010F000D2010091CD0110E0F801E553FE4F2083AD
:101100000091E0010A3040F400E02091CD0130E090
:10111000F901E253FE4F00830091E0010B3060F0D3
:101120000091E001093140F401E02091CD0130E06F
:10113000F901E253FE4F00830091E0010A3160F0B3
:101140000091E001083240F402E02091CD0130E04E
:10115000F901E253FE4F00830091E001093240F0B3
:1011600003E02091CD0130E0F901E253FE4F00830E
:1011700000E00093E0019FBF0991199129913991F5
:1011800049915991699179910990199029903990D3
:10119000E991F99189919991189500008895FECF70
:1011A0000FE30DBF01E00EBFC0E2D1E00E942A09AB
:1011B000002311F00E943A090E944A060E94CD08BD
:1011C0000C94CD08149F102D059F100D049F002D29
:1011D000110D08954A951AF0000F111FFBCF0895C5
:1011E0002224349F302D259F300D169F300D079FF0
:1011F000300D249F202D310D159F200D311D069F90
:10120000200D311D149F102D210D321D059F100D35
:10121000211D321D049F002D110D221D321D089528
:101220004A952AF03595279517950795F9CF089592
:101230005A924A92BA93AA939A938A9308955D8098
:101240004C80BB81AA8199818881F0E0EC0FFD1F61
:10125000EF01089501E0089520E006D0E9F7089530
:10126000259102D0E9F708952D9301501040202FC9
:10127000212B089588EA92E1FC0105911491FC016B
:101280003296A591B491FC01349625913491422F68
:10129000432B19F0F901E4DF01C0DEDF069612E10D
:1012A000843B910748F3089584004001B412210063
:1012B000C40100000B0A1C1C0E1A20101D12101075
:1012C0001010101E001D1C191D1C10101D121010D6
:1012D0001010101E0C150A1A140E101016121010F1
:1012E0001010100A111111111111111111111111F8
:1012F000111111111B0E1A1E0E1A101010101010C1
:10130000101010100B0A1C1C0E1A201010101010B8
:1013100010101010111111111111111111111111C1
:1013200011111111101010101010101010101010B9
:0813300010101010FA05060769
:0400000300000000F9
:00000001FF
